:020000040800F2
:1000000000C001208D4B000871080008730800082B
:10001000750800087708000879080008000000004B
:100020000000000000000000000000007B08000845
:100030007D080008000000007F0800088108000813
:10004000DD4B0008DD4B0008DD4B0008DD4B0008F0
:10005000DD4B0008DD4B0008DD4B0008DD4B0008E0
:10006000DD4B0008DD4B0008DD4B0008DD4B0008D0
:10007000DD4B0008DD4B0008DD4B0008DD4B0008C0
:10008000DD4B0008DD4B0008DD4B0008DD4B0008B0
:10009000DD4B0008DD4B0008DD4B0008DD4B0008A0
:1000A000DD4B0008DD4B0008DD4B0008DD4B000890
:1000B000DD4B0008DD4B0008DD4B0008DD4B000880
:1000C000DD4B0008DD4B0008DD4B0008DD4B000870
:1000D000DD4B0008DD4B000889080008DD4B0008F7
:1000E000DD4B0008DD4B0008DD4B0008DD4B000850
:1000F000DD4B0008DD4B0008DD4B0008DD4B000840
:1001000000000000DD4B000800000000DD4B00088F
:10011000DD4B0008DD4B0008DD4B0008DD4B00081F
:10012000DD4B0008DD4B0008DD4B0008DD4B00080F
:10013000DD4B00080000000000000000DD4B00085F
:10014000DD4B0008DD4B000800000000000000004F
:10015000000000000000000000000000000000009F
:10016000000000000000000000000000DD4B00085F
:10017000DD4B0008DD4B0008DD4B0008DD4B0008BF
:10018000DD4B0008DD4B000800000000000000000F
:100190000000000000000000DD4B0008DD4B0008FF
:1001A0000000000000000000DD4B0008DD4B0008EF
:1001B000DD4B0008DD4B0008DD4B0008DD4B00087F
:1001C000DD4B0008DD4B0008DD4B0008DD4B00086F
:0801D000DD4B0008DD4B0008C7
:1001E00010B5054C237833B9044B13B10448AFF371
:1001F00000800123237010BD70000020000000006B
:100200003055000808B5034B1BB103490348AFF351
:10021000008008BD00000000740000203055000878
:10022000034613F8012B002AFBD1181A0138704736
:1002300001F0FF01102A2BDB10F0070F08D010F897
:10024000013B013A8B422DD010F0070F42B3F6D19B
:10025000F0B441EA012141EA014122F007047FF0B4
:1002600000070023F0E80256083C85EA010586EA0B
:10027000010685FA47F5A3FA87F586FA47F6A5FA47
:1002800087F68EB9EED1F0BC01F0FF0102F0070253
:1002900032B110F8013B013A83EA010313B1F8D1FE
:1002A0000020704701387047002D06BF35460338DF
:1002B000073815F0010F07D1013015F4807F02BF18
:1002C000013015F4C03F0130F0BC0138704700BF69
:1002D00053B94AB9002908BF00281CBF4FF0FF31AD
:1002E0004FF0FF3000F074B9ADF1080C6DE904CEA9
:1002F00000F006F8DDF804E0DDE9022304B0704701
:100300002DE9F047089D04468E46002B4DD18A42C8
:10031000944669D9B2FA82F252B101FA02F3C2F1FB
:10032000200120FA01F10CFA02FC41EA030E94408C
:100330004FEA1C48210CBEFBF8F61FFA8CF708FBAD
:1003400016E341EA034306FB07F199420AD91CEB85
:10035000030306F1FF3080F01F81994240F21C81B7
:10036000023E63445B1AA4B2B3FBF8F008FB1033FF
:1003700044EA034400FB07F7A7420AD91CEB040434
:1003800000F1FF3380F00A81A74240F20781644404
:10039000023840EA0640E41B00261DB1D440002389
:1003A000C5E900433146BDE8F0878B4209D9002DED
:1003B00000F0EF800026C5E9000130463146BDE877
:1003C000F087B3FA83F6002E4AD18B4202D38242E1
:1003D00000F2F980841A61EB030301209E46002D90
:1003E000E0D0C5E9004EDDE702B9FFDEB2FA82F2E5
:1003F000002A40F09280A1EB0C014FEA1C471FFA43
:100400008CFE0126200CB1FBF7F307FB131140EA29
:1004100001410EFB03F0884208D91CEB010103F1F6
:10042000FF3802D2884200F2CB804346091AA4B2B8
:10043000B1FBF7F007FB101144EA01440EFB00FE8C
:10044000A64508D91CEB040400F1FF3102D2A645F1
:1004500000F2BB800846A4EB0E0440EA03409CE790
:10046000C6F12007B34022FA07FC4CEA030C20FA3D
:1004700007F401FA06F31C43F9404FEA1C4900FA5D
:1004800006F3B1FBF9F8200C1FFA8CFE09FB1811DA
:1004900040EA014108FB0EF0884202FA06F20BD94D
:1004A0001CEB010108F1FF3A80F08880884240F29D
:1004B0008580A8F102086144091AA4B2B1FBF9F0E1
:1004C00009FB101144EA014100FB0EFE8E4508D9DC
:1004D0001CEB010100F1FF346CD28E456AD9023861
:1004E000614440EA0840A0FB0294A1EB0E01A14246
:1004F000C846A64656D353D05DB1B3EB080261EBB4
:100500000E0101FA07F722FA06F3F1401F43C5E98D
:10051000007100263146BDE8F087C2F12003D840C3
:100520000CFA02FC21FA03F3914001434FEA1C4705
:100530001FFA8CFEB3FBF7F007FB10360B0C43EAF7
:10054000064300FB0EF69E4204FA02F408D91CEBA7
:10055000030300F1FF382FD29E422DD902386344A5
:100560009B1B89B2B3FBF7F607FB163341EA034145
:1005700006FB0EF38B4208D91CEB010106F1FF3894
:1005800016D28B4214D9023E6144C91A46EA00468B
:1005900038E72E46284605E70646E3E61846F8E61D
:1005A0004B45A9D2B9EB020864EB0C0E0138A3E766
:1005B0004646EAE7204694E74046D1E7D0467BE747
:1005C000023B614432E7304609E76444023842E7BF
:1005D000704700BF38B5484B1B78312B11D0322BF8
:1005E0003DD0332B69D04548036840F6C4129A6366
:1005F000042100F029FE01223F49414803F00CF894
:1006000038BD3E4C41F28833E360012208213D4869
:1006100001F0C4FE00224FF480714FF0904001F0D1
:10062000BDFE236840F6C4129A630421204600F000
:1006300057FD002105E0013341F699129342FADD9E
:100640000131642901DC0023F6E704212B4800F086
:10065000FBFD002208212B4801F0A0FECBE7274C30
:1006600041F28833E36001220821264801F096FE1A
:1006700001224FF480714FF0904001F08FFE23680B
:1006800040F6C4129A630421204600F029FD00219F
:1006900005E0013341F699129342FADD01316429F4
:1006A00001DC0023F6E70421144800F0CDFD002210
:1006B0000821144801F072FE9DE7104C41F2883386
:1006C000E360104D01220821284601F067FE012257
:1006D0004FF480714FF0904001F060FE23684FF4BA
:1006E000FA729A630421204600F0FAFC00220821E5
:1006F000284601F053FE7EE78C0000209400002085
:100700006C0100200008004872B6FEE710B594B0F6
:100710003822002106A804F087FA002401940294EC
:100720000394049405944FF4007000F0A9FE022392
:1007300006934FF48073099340230A930D9406A8FF
:1007400000F0B6FF68B90F23019301230293002143
:1007500003910491059101A801F062FA18B914B04F
:1007600010BDFFF7D1FFFFF7CFFF000010B58AB033
:1007700000F03CFFFFF7CAFF03F052F803F020F946
:1007800003F042FC03F00CFC03F0B2FB03F000FBAF
:1007900000238DF820308DF821308DF82230012291
:1007A0008DF823208DF824308DF823308DF8182013
:1007B0008DF8193003218DF81A108DF81B308DF843
:1007C0001C308DF81D308DF810308DF811208DF80B
:1007D00012308DF813308DF814308DF815308DF8F7
:1007E00016308DF806201C4C1C49204602F014FFE0
:1007F000C82315221A49204602F08DFD0EE0012281
:100800000821184801F0CAFD4FF0FF3303221649B2
:10081000114802F080FD642000F00AFF03F0B8FAEE
:1008200008A803F04DF906A803F09CF904A803F00A
:10083000EFF901A803F048FA03F0D6FADFED0B7ADE
:10084000B4EEE70AF1EE10FAD9D4002208210548E7
:1008500001F0A4FDD8E700BF6C0100208C0000204F
:10086000485500080008004860550008000034435F
:10087000FEE7FEE7FEE7FEE7FEE7704770477047DA
:1008800008B500F0C3FE08BD08B5024801F0C0FE7F
:1008900008BD00BF6C01002000B583B00B4B1A6E81
:1008A00042F001021A661A6E02F001020092009AEA
:1008B0009A6D42F080529A659B6D03F080530193CC
:1008C000019B00F063FE03B05DF804FB00100240E2
:1008D00030B4036A23F001030362036A4568826946
:1008E00022F4803222F073020C68224323F00203C8
:1008F0008C682343214CA04213D004F50064A0422D
:100900000FD004F54064A0420BD004F58064A042EF
:1009100007D004F58064A04203D004F50064A0422F
:1009200005D123F00803CC68234323F00403134CC0
:10093000A04213D004F50064A0420FD004F5406437
:10094000A0420BD004F58064A04207D004F5806477
:10095000A04203D004F50064A04207D125F4407CF6
:100960004C6944EA0C0C8D6945EA0C0545608261CE
:100970004A684263036230BC704700BF002C0140EC
:1009800030B4036A23F480730362036A4468C26963
:1009900022F4803222F073020D682A4323F400739C
:1009A0008D6843EA05231C4DA84207D005F5006574
:1009B000A84203D005F5E055A84206D123F4006310
:1009C000CD6843EA052323F48063134DA84213D076
:1009D00005F50065A8420FD005F54065A8420BD08B
:1009E00005F58065A84207D005F58065A84203D0CB
:1009F00005F50065A84207D124F4405C4C694CEA37
:100A0000041C8C694CEA04144460C2614A68C263E5
:100A1000036230BC704700BF002C014030B4036A51
:100A200023F480530362036A4468C26922F080722F
:100A300022F4E6420D6842EA052223F400538D6851
:100A400043EA05331B4DA84207D005F50065A842CF
:100A500003D005F5E055A84206D123F40043CD6844
:100A600043EA053323F48043124DA84213D005F521
:100A70000065A8420FD005F54065A8420BD005F5EA
:100A80008065A84207D005F58065A84203D005F52A
:100A90000065A84207D124F4404C4C694CEA841C00
:100AA0008C694CEA84144460C2614A68026403623F
:100AB00030BC7047002C014030B4036A23F480330B
:100AC0000362036A4468026D22F4803222F07002ED
:100AD0000D682A4323F400338D6843EA0543114D22
:100AE000A84213D005F50065A8420FD005F5406572
:100AF000A8420BD005F58065A84207D005F58065B2
:100B0000A84203D005F50065A84204D124F480343E
:100B10004D6944EA0524446002654A6882640362C0
:100B200030BC7047002C014030B4036A23F48013BA
:100B30000362036A4468026D22F0807222F4E0428C
:100B40000D6842EA052223F400138D6843EA055339
:100B5000114DA84213D005F50065A8420FD005F548
:100B60004065A8420BD005F58065A84207D005F581
:100B70008065A84203D005F50065A84204D124F49D
:100B800080244D6944EA8524446002654A68C26451
:100B9000036230BC704700BF002C014010B4036AF0
:100BA000046A24F001040462846924F0F00C4CEA25
:100BB000021223F00A030B43826103625DF8044BC7
:100BC000704710B4046A24F0100404628469036A54
:100BD00024F4704C4CEA023223F0A00343EA0113E0
:100BE000826103625DF8044B7047836823F440130D
:100BF00023F070030B4343F0070383607047704793
:100C00000368324A904212D0B0F1804F0FD0A2F563
:100C1000943290420BD002F58062904207D002F5E8
:100C20009632904203D002F5E052904203D123F075
:100C300070034A681343254A90421ED0B0F1804F9A
:100C40001BD0A2F59432904217D002F580629042F8
:100C500013D002F5963290420FD002F540629042D6
:100C60000BD002F58062904207D002F5806290427C
:100C700003D002F50062904203D123F44073CA68A6
:100C8000134323F080034A69134303608B68C362F4
:100C90000B6883620D4B984213D003F500639842B2
:100CA0000FD003F5406398420BD003F58063984260
:100CB00007D003F58063984203D003F500639842A0
:100CC00001D10B690363012343617047002C01408C
:100CD00060B310B5044690F83D3013B3022384F896
:100CE0003D30214651F8040BFFF78AFF012384F8B9
:100CF000483084F83E3084F83F3084F8403084F83F
:100D0000413084F8423084F8433084F8443084F829
:100D1000453084F8463084F8473084F83D30002070
:100D200010BD80F83C3002F00BFED7E70120704781
:100D300060B310B5044690F83D3013B3022384F835
:100D40003D30214651F8040BFFF75AFF012384F888
:100D5000483084F83E3084F83F3084F8403084F8DE
:100D6000413084F8423084F8433084F8443084F8C9
:100D7000453084F8463084F8473084F83D30002010
:100D800010BD80F83C30FFF73AFFD7E701207047ED
:100D900030B4036A23F010030362036A4468826973
:100DA00022F0807222F4E6420D6842EA052223F026
:100DB00020038D6843EA05131B4DA84207D005F5B3
:100DC0000065A84203D005F5E055A84206D123F0FE
:100DD0008003CD6843EA051323F04003124DA84277
:100DE00013D005F50065A8420FD005F54065A8426F
:100DF0000BD005F58065A84207D005F58065A842AF
:100E000003D005F50065A84207D124F4406C4C6975
:100E10004CEA840C8C694CEA8404446082614A6820
:100E20008263036230BC7047002C014038B590F8F3
:100E30003C30012B00F0958004460D46012380F8DC
:100E40003C30142A00F28880DFE802F00B868686A8
:100E50001F86868634868686488686865D86868652
:100E600071000068FFF734FD2268936943F00803BE
:100E700093612268936923F0040393612268936964
:100E800029690B439361002067E00068FFF780FF4A
:100E90002268936943F4006393612268936923F4A1
:100EA0008063936122689369296943EA012393610E
:100EB000002052E00068FFF763FD2268D36943F029
:100EC0000803D3612268D36923F00403D361226845
:100ED000D36929690B43D36100203EE00068FFF726
:100EE0009DFD2268D36943F40063D3612268D3690E
:100EF00023F48063D3612268D369296943EA01231B
:100F0000D361002029E00068FFF7D6FD2268136D49
:100F100043F0080313652268136D23F0040313657F
:100F20002268136D29690B431365002015E00068E2
:100F3000FFF7FAFD2268136D43F40063136522681E
:100F4000136D23F4806313652268136D296943EAE6
:100F500001231365002000E00120002384F83C30C9
:100F600038BD0220FCE710B4846824F47F4C42EAC8
:100F700003220A4342EA0C0282605DF8044B704788
:100F800090F83C30012B00F0928010B5044601230C
:100F900080F83C30022380F83D3002689068454B71
:100FA000034093600B68702B58D031D8502B6FD012
:100FB0000CD9602B2AD1CA6849682068FFF701FE66
:100FC00060212068FFF711FE002035E0402B0AD198
:100FD000CA6849682068FFF7E1FD40212068FFF7F3
:100FE00004FE002028E05ED8202B07D003D9302B48
:100FF00004D0012020E00BB1102B05D11946206848
:10100000FFF7F3FD002017E0012015E0012013E0B9
:10101000B3F5005F2FD00BD9274A9342EED012D9F7
:10102000264A9342EAD020329342E7D0012003E0DF
:10103000B3F5805F39D10020012384F83D300023CF
:1010400084F83C3010BD203A9342D7D010329342FE
:10105000D4D0B3F1101FD1D00120EDE7CB684A689E
:1010600089682068FFF77FFF2268936843F0770361
:1010700093600020E0E7CB684A6889682068FFF742
:1010800072FF2268936843F4804393600020D3E7A3
:10109000CA6849682068FFF781FD50212068FFF782
:1010A000A4FD0020C8E70120C6E70120C4E7022014
:1010B000704700BF8800CEFF4000100050001000B5
:1010C00001F01F01012303FA01FC036A23EA0C0368
:1010D0000362036A02FA01F10B43036270470000E6
:1010E00010B50446084600294FD194F83E30DBB2D3
:1010F000013B18BF0123002B40F09C8000286FD1DA
:10110000022384F83E30012201462068FFF7D8FF11
:1011100023684B4A934213D002F5006293420FD0EA
:1011200002F5406293420BD002F58062934207D0F1
:1011300002F58062934203D002F50062934203D12C
:101140005A6C42F400425A6423683D4A934263D089
:10115000B3F1804F60D0A2F5943293425CD002F597
:101160008062934258D002F59632934254D002F5F1
:101170004062934250D002F5805293424CD01A689C
:1011800042F001021A60002055E004290CD0082921
:1011900011D00C2916D010291BD094F84330DBB2A3
:1011A000013B18BF0123A6E794F83F30DBB2013BB7
:1011B00018BF01239FE794F84030DBB2013B18BF12
:1011C000012398E794F84130DBB2013B18BF0123BB
:1011D00091E794F84230DBB2013B18BF01238AE764
:1011E000042809D008280BD00C280DD010280FD0C7
:1011F000022384F8433086E7022384F83F3082E7F5
:10120000022384F840307EE7022384F841307AE7F5
:10121000022384F8423076E799680A4A0A40062A8F
:101220000AD0B2F5803F09D01A6842F001021A6074
:10123000002000E0012010BD0020FCE70020FAE7BC
:10124000002C01400700010038B504460D4600227D
:101250000068FFF735FF23682A4A934213D002F54E
:10126000006293420FD002F5406293420BD002F528
:101270008062934207D002F58062934203D002F568
:10128000006293420DD1196A41F21112114208D144
:10129000196A44F24442114203D15A6C22F40042CA
:1012A0005A642368196A41F21112114208D1196A6D
:1012B00044F24442114203D11A6822F001021A603A
:1012C00025B9012384F83E30002038BD042D09D013
:1012D000082D0BD00C2D0DD0102D0FD0012384F82C
:1012E0004330F1E7012384F83F30EDE7012384F830
:1012F0004030E9E7012384F84130E5E7012384F831
:101300004230E1E7002C014090F83C30012B48D0FE
:1013100030B4012380F83C30022380F83D3002686D
:1013200053689468204DAA4207D005F50065AA428B
:1013300003D005F5E055AA4203D123F470034D68AC
:101340002B4323F0007323F070030D682B4353608D
:101350000368154A934216D0B3F1804F13D0A2F51B
:10136000943293420FD002F5806293420BD002F583
:101370009632934207D002F54062934203D002F5C1
:101380008052934204D124F080048A6814439C6004
:10139000012380F83D30002380F83C30184630BCF3
:1013A00070470220704700BF002C014090F83C308D
:1013B000012B60D010B4012380F83C30CB6823F4BB
:1013C00040738A68134323F480634A68134323F409
:1013D00000630A68134323F480530A69134323F418
:1013E00000534A69134323F480430A6B134323F4E5
:1013F00070238A6943EA02430268204CA24207D064
:1014000004F50064A24203D004F5E054A24203D1E3
:1014100023F08053CC692343184CA24207D004F533
:101420000064A24203D004F5E054A2421BD123F48D
:1014300070038C6A43EA045323F080730C6A2343DD
:1014400023F000734C6A23430C4CA24207D004F5EE
:101450000064A24203D004F5E054A24203D123F079
:101460000053C96A0B435364002380F83C3018468C
:101470005DF8044B70470220704700BF002C01400C
:10148000002836D13E4B1B6803F4C063B3F5806F70
:1014900008D03B4AD2F8803023F48073C2F8803001
:1014A00000207047364AD2F8803023F48073C2F8A7
:1014B0008030136823F4C06343F400731360314B2E
:1014C0001B68322202FB03F32F4AA2FB03239B0C6F
:1014D000013300E0013B2A4A526912F4806F01D0C7
:1014E000002BF7D1264B5B6913F4806F44D10020A9
:1014F0007047B0F5007F08D0214A136823F4C06319
:1015000043F480631360002070471D4B1B6803F495
:10151000C063B3F5806F08D0194AD2F8803043F425
:101520008073C2F8803000207047154AD2F88030AE
:1015300043F48073C2F88030136823F4C06343F42B
:10154000007313600F4B1B68322202FB03F30E4A39
:10155000A2FB03239B0C013300E0013B084A5269C4
:1015600012F4806F01D0002BF7D1054B5B6913F4A7
:10157000806F03D10020704703207047032070471D
:10158000007000400800002083DE1B43024A93687D
:1015900043F480439360704700700040104B1B6819
:1015A0000BB90120704710B504464FF47A70B0FBB8
:1015B000F3F30C4A1068B0FBF3F000F0C1FF68B918
:1015C0000F2C01D901200AE0002221464FF0FF3004
:1015D00000F070FF044B1C60002000E0012010BDF3
:1015E00000000020080000200400002010B50320A7
:1015F00000F04EFF0F20FFF7D1FF10B1012420466D
:1016000010BD0446FFF748F9F9E70000034A1368E4
:10161000034909680B441360704700BF9000002025
:1016200000000020014B1868704700BF90000020A8
:1016300038B50446FFF7F6FF0546B4F1FF3F02D088
:10164000044B1B681C44FFF7EDFF401BA042FAD37C
:1016500038BD00BF00000020124BDA6802F0030220
:10166000D868C0F30310431C032A11D00E48B0FB06
:10167000F3F00C4BDB68C3F3062303FB00F0094BCC
:10168000DB68C3F3416301335B00B0FBF3F07047E9
:101690000648B0FBF3F0034BDB68C3F3062303FB00
:1016A00000F0ECE7001002400024F40000127A0081
:1016B000002800F0548270B582B00446036813F02D
:1016C000010F37D0A44A936803F00C03D26802F0EC
:1016D00003020C2B23D0082B23D06368B3F5803F83
:1016E0004ED0B3F5A02F51D09B4B1A6822F4803214
:1016F0001A601A6822F480221A606368002B52D0A4
:10170000FFF790FF0546944B1B6813F4003F11D17F
:10171000FFF788FF401B6428F5D9032028E2032A3D
:10172000D9D18D4B1B6813F4003F03D06368002BA5
:1017300000F01782236813F0020F5DD0864A936889
:1017400003F00C03D26802F003020C2B3AD0042BF6
:101750003AD0E368002B75D07F4A136843F4807356
:101760001360FFF75FFF05467B4B1B6813F4806F28
:101770005FD1FFF757FF401B0228F5D90320F7E19F
:10178000754A136843F480331360B6E703F180436E
:10179000A3F53C331A6842F480221A601A6842F4B6
:1017A00080321A60A9E7FFF73DFF05466A4B1B68C8
:1017B00013F4003FBED0FFF735FF401B6428F5D976
:1017C0000320D5E1022AC2D1634B1B6813F4806F5A
:1017D00003D0E368002B00F0C6815F4A536823F012
:1017E000FE43216943EA016353605C4B1868FFF7CD
:1017F000D5FE002840F0B981236813F0080F4CD0C3
:1018000063699BB3544AD2F8943043F00103C2F8A1
:101810009430FFF707FF05464F4BD3F8943013F091
:10182000020F3AD1FFF7FEFE401B0228F4D9032035
:101830009EE1494A536823F0FE43216943EA01636C
:101840005360D9E7444A136823F480731360FFF7A9
:10185000E9FE0546404B1B6813F4806FCCD0FFF7C0
:10186000E1FE401B0228F5D9032081E13A4AD2F873
:10187000943023F00103C2F89430FFF7D3FE0546FD
:10188000354BD3F8943013F0020F06D0FFF7CAFEA1
:10189000401B0228F4D903206AE1236813F0040FE7
:1018A00000F081802C4B9B6D13F0805F36D12A4B6A
:1018B0009A6D42F080529A659B6D03F080530193BC
:1018C000019B0125264B1B6813F4807F28D0A36859
:1018D000012B39D0052B45D01F4BD3F8902022F097
:1018E0000102C3F89020D3F8902022F00402C3F83C
:1018F0009020A368002B43D0FFF794FE0646164BBA
:10190000D3F8903013F0020F4CD1FFF78BFE801B01
:1019100041F288339842F2D9032029E10025D1E72A
:101920000F4A136843F480731360FFF77BFE06468B
:101930000B4B1B6813F4807FC9D1FFF773FE801B2C
:101940000228F5D9032013E1034AD2F8903043F07E
:101950000103C2F89030CCE70010024004000020E0
:10196000007000408A4BD3F8902042F00402C3F884
:101970009020D3F8902042F00102C3F89020B8E7FD
:10198000FFF750FE0646824BD3F8903013F0020F5B
:1019900008D0FFF747FE801B41F288339842F2D906
:1019A0000320E5E0E5B9236813F0200F35D0A369E3
:1019B000E3B1774AD2F8983043F00103C2F8983087
:1019C000FFF730FE0546724BD3F8983013F0020F44
:1019D00023D1FFF727FE401B0228F4D90320C7E0DC
:1019E0006B4A936D23F080539365DCE7684AD2F825
:1019F000983023F00103C2F89830FFF713FE054634
:101A0000634BD3F8983013F0020F06D0FFF70AFEAD
:101A1000401B0228F4D90320AAE0E369002B00F060
:101A2000A6805B4A926802F00C020C2A69D0022B55
:101A30001DD0574B1A6822F080721A60DA6822F0C3
:101A40000302DA60DA6822F0887222F48032DA6007
:101A5000FFF7E8FD04464E4B1B6813F0007F4ED0A5
:101A6000FFF7E0FD001B0228F5D9032080E0484A7B
:101A7000136823F080731360FFF7D4FD0546444BD1
:101A80001B6813F0007F06D0FFF7CCFD401B022837
:101A9000F5D903206CE03E4AD3683E491940236AD9
:101AA000606A013843EA0013A06A43EA0023206B0E
:101AB0004008013843EA4053606B4008013843EA6C
:101AC0004063E06A43EAC0630B43D360136843F0AA
:101AD00080731360D36843F08073D360FFF7A2FD77
:101AE00004462B4B1B6813F0007F06D1FFF79AFDCD
:101AF000001B0228F5D903203AE0002038E000203E
:101B000036E0012B36D0224BDB6803F00301226A5A
:101B1000914231D103F0F002616A0139B2EB011F49
:101B20002CD103F4FE42A16AB2EB012F28D103F0BD
:101B30007842E16AB2EBC16F24D103F4C001226B99
:101B40005208013AB1EB425F1ED103F0C063626BF1
:101B50005208013AB3EB426F18D1002008E001208F
:101B60007047012004E0012002E0012000E0002095
:101B700002B070BD0120FBE70120F9E70120F7E783
:101B80000120F5E70120F3E70120F1E70120EFE76D
:101B9000001002400C809F011E4B9B6803F00C0359
:101BA000042B33D01B4B9B6803F00C03082B2FD066
:101BB000184B9B6803F00C030C2B01D000207047DE
:101BC000144BDA6802F00302D868C0F30310431C18
:101BD000032A11D01048B0FBF3F00E4BDB68C3F3BF
:101BE000062303FB00F00B4BDB68C3F341630133B7
:101BF0005B00B0FBF3F070470848B0FBF3F0054B17
:101C0000DB68C3F3062303FB00F0ECE702487047F0
:101C100002487047001002400024F40000127A00CD
:101C2000002800F0E680F8B50C460546744B1B68AA
:101C300003F00F038B420BD2714A136823F00F039A
:101C40000B431360136803F00F038B4240F0D38003
:101C50002E6816F001065FD06B68032B2FD0022B85
:101C60004DD0684B1B6813F4806F00F0C680FFF7FF
:101C700093FF654B98424DD9624A936823F0F00375
:101C800043F08003936080265E4A936823F0030349
:101C900069680B439360FFF7C5FC0746594B9B6887
:101CA00003F00C036A68B3EB820F35D0FFF7BAFC80
:101CB000C01B41F288339842F0D9032078E0514BA1
:101CC0001B6813F0007F01D1012071E0FFF7C4FC15
:101CD0004D4B98421AD94B4B9B6813F0F00F05D02F
:101CE0002E6816F00206CFD0AB688BB9454A9368D0
:101CF00023F0F00343F0800393608026C4E7414B58
:101D00001B6813F4003FB2D1012051E00026BBE76D
:101D10000026B9E70026B7E72B6813F0020F48D07A
:101D200013F0040F04D0374A936843F4E0639360E0
:101D30002B6813F0080F06D0324A936823F47C53C3
:101D400043F4E06393602F4A936823F0F003A9689B
:101D50000B4393602A4B1B6803F00F03A34230D858
:101D60002B6813F0040F06D0264A936823F4E0632F
:101D7000E9680B4393602B6813F0080F07D0214AE2
:101D8000936823F46053296943EAC1039360FFF722
:101D900003FF1C4B9B68C3F303131C4AD35C03F083
:101DA0001F03D8401A4B18601A4B1868FFF7F6FB50
:101DB000F8BD802ECED1134A936823F0F0039360D0
:101DC000C8E70F4A136823F00F0323431360FFF79C
:101DD00029FC06460A4B1B6803F00F03A342BFD041
:101DE000FFF720FC801B41F288339842F2D9032090
:101DF000DEE7012070470120DAE70120D8E700BFC5
:101E0000002002400010024000B4C40464550008E1
:101E10000800002004000020014B1868704700BF34
:101E20000800002008B5FFF7F7FF054B9B68C3F3D8
:101E30000223044AD35C03F01F03D84008BD00BF4F
:101E4000001002407455000808B5FFF7E5FF054B88
:101E50009B68C3F3C223044AD35C03F01F03D8403A
:101E600008BD00BF0010024074550008F0B583B0F3
:101E70000446036813F4002F6ED0354B9B6D13F0AE
:101E8000805F1ED1324B9A6D42F080529A659B6DF5
:101E900003F080530193019B01262E4A136843F4FB
:101EA00080731360FFF7BEFB05462A4B1B6813F4D3
:101EB000807F08D1FFF7B6FB401B0228F5D9032528
:101EC00002E00026E9E7002545BB214BD3F890301E
:101ED00013F4407315D0E26C9A4212D01C4AD2F827
:101EE000903023F44073D2F8901041F48031C2F85E
:101EF0009010D2F8901021F48031C2F89010C2F8FE
:101F0000903013F0010F10D145B9114AD2F890303A
:101F100023F44073E16C0B43C2F89030EEB10C4AED
:101F2000936D23F08053936517E0FFF77BFB074623
:101F3000074BD3F8903013F0020FE5D1FFF772FB97
:101F4000C01B41F288339842F2D90325DCE700BF79
:101F500000100240007000400025236813F0010FBC
:101F600008D0984AD2F8883023F0030361680B4305
:101F7000C2F88830236813F0020F08D0914AD2F8D3
:101F8000883023F00C03A1680B43C2F88830236823
:101F900013F0040F08D08B4AD2F8883023F03003B6
:101FA000E1680B43C2F88830236813F0080F08D0AB
:101FB000844AD2F8883023F0C00321690B43C2F869
:101FC0008830236813F0100F08D07E4AD2F888308A
:101FD00023F4407361690B43C2F88830236813F01F
:101FE000200F08D0774AD2F8883023F44063A169E3
:101FF0000B43C2F88830236813F0400F08D0714AB1
:10200000D2F8883023F44053E1690B43C2F888309A
:10201000236813F0800F08D06A4AD2F8883023F47E
:102020004043216A0B43C2F88830236813F4807F51
:1020300008D0644AD2F8883023F44033616A0B43F5
:10204000C2F88830236813F4007F08D05D4AD2F8C4
:10205000883023F44023A16A0B43C2F888302368F8
:1020600013F4806F0CD0574AD2F8883023F4401311
:10207000E16A0B43C2F88830E36AB3F5801F79D078
:10208000236813F4006F0CD04E4AD2F8883023F442
:102090004003216B0B43C2F88830236BB3F5800FEC
:1020A0006DD0236813F4805F0CD0464AD2F8883094
:1020B00023F04073616B0B43C2F88830636BB3F15C
:1020C000807F61D0236813F4005F0CD03D4AD2F8C2
:1020D000883023F04063A16B0B43C2F88830A36BB8
:1020E000B3F1006F55D0236813F4804F0CD0354AFC
:1020F000D2F8883023F04063E16B0B43C2F888309C
:10210000E36BB3F1006F49D0236813F4004F0CD098
:102110002C4AD2F8883023F04053216C0B43C2F88C
:102120008830236CB3F1805F3DD0236813F4803F87
:102130000CD0244AD2F8883023F04043616C0B4322
:10214000C2F88830636CB3F1804F31D0236813F448
:10215000802F0CD01B4AD2F89C3023F44013A16C82
:102160000B43C2F89C30A36CB3F5001F25D0284662
:1021700003B0F0BDD36843F48013D36080E7D36825
:1021800043F48013D3608CE7D36843F48013D360A7
:1021900098E7D36843F48013D360A4E7D36843F48B
:1021A0008013D360B0E7D36843F48033D360BCE7D7
:1021B000D36843F48033D360C8E7D36843F4801313
:1021C000D360D4E700100240F0B583B0002362E092
:1021D00085685E000324B44025EA0405CC68B44059
:1021E0002C438460446824EA0C0C4C68C4F300144B
:1021F0009C4044EA0C0444605EE0DD08083550F879
:10220000256003F007044FEA840C0F2404FA0CF451
:1022100026EA040E0C6904FA0CF444EA0E0440F8B1
:10222000254060E0052400E0002404FA0EF42C436D
:102230000CF1020C554D45F82C40554CA568D44383
:1022400025EA02064F6817F4801F01D042EA05060E
:102250004F4DAE60ED6804EA05064F6817F4001FA5
:1022600001D042EA05064A4DEE606D6804EA0506B3
:102270004F6817F4003F01D042EA0506444D6E60F6
:102280002D682C404E6816F4803F01D042EA0504C8
:102290003F4A146001330A6832FA03F474D04FF0F5
:1022A000010C0CFA03FC1CEA0202F3D04C6804F0A7
:1022B0000304013C012C8BD94C6804F00304032C6B
:1022C0000CD0C4685D004FF0030C0CFA05FC24EA46
:1022D0000C0C8C68AC4044EA0C04C4604C6804F0FC
:1022E0000304022C89D004684FEA430E4FF0030C1C
:1022F0000CFA0EFC24EA0C0C4C6804F0030404FAFB
:102300000EF444EA0C0404604C6814F4403FC1D05D
:10231000204C256E45F001052566246E04F001046D
:102320000194019C4FEA930C0CF10205174C54F8F0
:10233000255003F003044FEA840E0F2404FA0EF430
:1023400025EA0405B0F1904F3FF46EAF124CA04265
:1023500012D004F58064A04210D004F58064A0423D
:102360000ED004F58064A0420CD004F58064A04235
:102370003FF458AF062458E7012456E7022454E7F7
:10238000032452E7042450E703B0F0BD00000140ED
:102390000004014000100240000400480AB18161BD
:1023A000704781627047034690F82520D2B2022A16
:1023B00009D00422C2630120012283F825200022D3
:1023C00083F82420704701680A6822F00E020A6030
:1023D000816C0A6822F480720A6001680A6822F03F
:1023E00001020A60426C02F01F01006C01228A4067
:1023F0004260DA6C196D51605A6D42B1116821F476
:10240000807111609A6DD96D51600020D4E7002071
:10241000D2E708B590F82530DBB2022B09D00423AF
:10242000C363012380F82530002280F82420184659
:1024300008BD0268136823F00E0313600268136876
:1024400023F001031360826C136823F4807313601C
:10245000436C03F01F02016C012393404B60C36C7B
:10246000026D5A60436D33B11A6822F480721A60AB
:10247000836DC26D5A60012380F82530002380F8F7
:102480002430836B13B198470020D1E70020CFE7B9
:10249000074AD36823F4E0631B041B0C000200F41A
:1024A000E060034343F0BF6343F40033D3607047FD
:1024B00000ED00E000B5194BDB68C3F30223C3F164
:1024C000070CBCF1040F28BF4FF0040C03F1040EFD
:1024D000BEF1060F18D9033B4FF0FF3E0EFA0CFC7D
:1024E00021EA0C0199400EFA03F322EA030319438F
:1024F00000280BDB0901C9B200F1604000F5614022
:1025000080F800135DF804FB0023E5E700F00F00FE
:102510000901C9B2024B1954F4E700BF00ED00E015
:1025200014ED00E0002807DB00F01F024009012342
:102530009340024A42F82030704700BF00E100E0BB
:102540000138B0F1807F0BD24FF0E0235861054A8B
:10255000F02182F823100020986107221A61704749
:102560000120704700ED00E0034AD2F8883043F4C0
:102570007003C2F88830704700ED00E0026852E84E
:10258000003F23F4907342E800310029F6D102683D
:1025900002F1080353E8003F23F0805323F00103C6
:1025A000083242E800310029F1D1C36E012B06D078
:1025B0002023C0F888300023C36603677047026891
:1025C00052E8003F23F0100342E800310029F6D121
:1025D000EEE7704708B5026852E8003F23F0400379
:1025E00042E800310029F6D12023C0F884300023CE
:1025F0004367FFF7EEFF08BD704708B5806A002308
:10260000A0F85E30A0F85630FFF7F6FF08BD70471F
:1026100070B504460168CB6908688D6840F60F0202
:102620001A4008D113F0200F05D010F0200F34D13C
:1026300015F0805F31D12AB1954A2A4033D1954EA9
:10264000304230D1E26E012A00F0C38013F4801FC3
:1026500003D015F4800F40F05B8113F0800F07D09A
:1026600010F0800F40F05B8115F4000F40F05781AF
:1026700013F0400F03D010F0400F40F0578113F4D7
:10268000000F03D010F0804F40F0548113F0807F92
:1026900002D00028C0F2528170BD236F002BFBD006
:1026A00020469847F8E713F0010F09D010F4807F17
:1026B00006D001260E62D4F88C103143C4F88C1079
:1026C00013F0020F0BD015F0010F08D0216802267D
:1026D0000E62D4F88C1041F00401C4F88C1013F091
:1026E000040F0BD015F0010F08D0216804260E62EC
:1026F000D4F88C1041F00201C4F88C1013F0080FCC
:102700000BD010F0200F00D13AB1226808211162DD
:10271000D4F88C200A43C4F88C2013F4006F0CD03A
:1027200010F0806F09D022684FF400611162D4F874
:102730008C2042F02002C4F88C20D4F88C20002A8F
:10274000AAD013F0200F09D010F0200F02D115F0FD
:10275000805F03D0236F0BB120469847D4F88C20BC
:1027600023689B6813F0400F02D112F0280F29D084
:102770002046FFF703FF23689B6813F0400F1DD02E
:10278000226802F1080353E8003F23F040030832B7
:1027900042E800310029F3D1E36F5BB13E4A9A630E
:1027A000E06FFFF736FE00283FF476AFE06F836BF3
:1027B000984771E72046FFF71FFF6DE72046FFF7B8
:1027C0001BFF69E72046FFF717FF0023C4F88C3092
:1027D00062E713F0100F3FF439AF10F0100F3FF421
:1027E00035AF10230B6223689B6813F0400F55D060
:1027F000E26F13685B689BB2002B3FF44DAFB4F8F7
:102800005C1099427FF648AFA4F85E3013681B68ED
:1028100013F0200F31D1226852E8003F23F4807377
:1028200042E800310029F6D1226802F1080353E89A
:10283000003F23F00103083242E800310029F3D1C0
:10284000226802F1080353E8003F23F040030832F6
:1028500042E800310029F3D12023C4F88830002356
:10286000E366226852E8003F23F0100342E800319B
:102870000029F6D1E06FFFF796FDB4F85C10B4F8CC
:102880005E309BB2C91A89B22046FFF7C0FE03E74B
:102890000100001020010004FB250008B4F85C10C2
:1028A000B4F85E309BB2C91A89B2B4F85E309BB2FC
:1028B000002B3FF4F1AE00293FF4EEAE226852E85F
:1028C000003F23F4907342E800300028F6D12268DC
:1028D00002F1080353E8003F23F0805323F0010383
:1028E000083242E800300028F1D12023C4F88830B3
:1028F0000023E3662367226852E8003F23F01003B9
:1029000042E800300028F6D12046FFF780FEC3E6FB
:102910004FF480130B62204600F015FFBCE6636F96
:10292000002B3FF4B9AE20469847B5E62046FFF7A6
:1029300051FEB1E6204600F008FFADE6204600F06B
:1029400003FFA9E608B5B0F86030D0F88820222A45
:1029500005D00268936943F00803936108BD0268DB
:10296000516ADBB2826D0B401370836D0133836556
:10297000B0F85E309BB2013B9BB2A0F85E30B0F87D
:102980005E309BB2002BE9D1026852E8003F23F48D
:10299000907342E800310029F6D1026802F1080381
:1029A00053E8003F23F00103083242E800310029D8
:1029B000F3D12023C0F8883000230367C36E012BB6
:1029C00016D10023C366026852E8003F23F01003CB
:1029D00042E800310029F6D10368DA6912F0100FDD
:1029E00001D010221A62B0F85C10FFF710FEB5E7B4
:1029F000FDF7F0FDB2E708B5B0F86020D0F88830F8
:102A0000222B05D00268936943F00803936108BD47
:102A100003685B6A816D13400B80836D02338365AD
:102A2000B0F85E309BB2013B9BB2A0F85E30B0F8CC
:102A30005E309BB2002BEAD1026852E8003F23F4DB
:102A4000907342E800310029F6D1026802F10803D0
:102A500053E8003F23F00103083242E80031002927
:102A6000F3D12023C0F8883000230367C36E012B05
:102A700016D10023C366026852E8003F23F010031A
:102A800042E800310029F6D10368DA6912F0100F2C
:102A900001D010221A62B0F85C10FFF7B8FDB6E75B
:102AA000FDF798FDB3E700002DE9F843B0F860604A
:102AB0000368DD69D3F80090D3F80880D0F8882047
:102AC000222A05D09A6942F008029A61BDE8F8838B
:102AD0000446B0F8687008E0D4F88C30002B4CD174
:102AE000B4F85E309BB2002B4ED0002F00F08780F0
:102AF00015F0200F00F083802368596AF3B2A26DAD
:102B00000B401370A36D0133A365B4F85E309BB224
:102B1000013B9BB2A4F85E302368DD6915F0070F16
:102B2000DED015F0010F09D019F4807F06D0012204
:102B30001A62D4F88C301343C4F88C3015F0020FAD
:102B40000BD018F0010F08D0236802221A62D4F8C3
:102B50008C3043F00403C4F88C3015F0040FBBD064
:102B600018F0010FB8D0236804221A62D4F88C3010
:102B700043F00203C4F88C30AEE72046FFF73CFD7B
:102B80000023C4F88C30ABE7226852E8003F23F4FE
:102B9000807342E800310029F6D1226802F108036F
:102BA00053E8003F23F0805323F00103083242E84A
:102BB00000310029F1D12023C4F888300023236795
:102BC000E36E012B03D02046FDF704FD8DE70023C3
:102BD000E366226852E8003F23F0100342E8003128
:102BE0000029F6D12368DA6912F0100F01D0102203
:102BF0001A62B4F85C102046FFF709FD75E7B4F8D7
:102C00005E309BB2002B3FF461AFB4F868209A426B
:102C10007FF65CAF226802F1080353E8003F23F01F
:102C20008053083242E800310029F3D1054B236775
:102C3000226852E8003F43F0200342E800310029B7
:102C4000F6D143E7452900082DE9F843B0F8606064
:102C50000368DD69D3F80090D3F80880D0F88820A5
:102C6000222A05D09A6942F008029A61BDE8F883E9
:102C70000446B0F8687008E0D4F88C30002B4BD1D3
:102C8000B4F85E309BB2002B4DD0002F00F0868050
:102C900015F0200F00F0828023685B6AA26D33403C
:102CA0001380A36D0233A365B4F85E309BB2013B81
:102CB0009BB2A4F85E302368DD6915F0070FDFD002
:102CC00015F0010F09D019F4807F06D001221A6295
:102CD000D4F88C301343C4F88C3015F0020F0BD0AD
:102CE00018F0010F08D0236802221A62D4F88C3041
:102CF00043F00403C4F88C3015F0040FBCD018F076
:102D0000010FB9D0236804221A62D4F88C3043F042
:102D10000203C4F88C30AFE72046FFF76DFC0023B8
:102D2000C4F88C30ACE7226852E8003F23F480738B
:102D300042E800310029F6D1226802F1080353E885
:102D4000003F23F0805323F00103083242E80031B2
:102D50000029F1D12023C4F8883000232367E36ED3
:102D6000012B03D02046FDF735FC8EE70023E366F8
:102D7000226852E8003F23F0100342E800310029A6
:102D8000F6D12368DA6912F0100F01D010221A620E
:102D9000B4F85C102046FFF73AFC76E7B4F85E30F2
:102DA0009BB2002B3FF462AFB4F868209A427FF6E2
:102DB0005DAF226802F1080353E8003F23F080531F
:102DC000083242E800310029F3D1064B236722681C
:102DD00052E8003F43F0200342E800310029F6D1D9
:102DE00044E700BFF729000870B50446016883680E
:102DF0000269134342691343C26913430868964A40
:102E0000024013430B602268536823F44053E16887
:102E10000B435360A1692268904B9A4201D0236A08
:102E20001943936823F06E4323F430630B4393609C
:102E30002268D36A23F00F03616A0B43D3622368CD
:102E4000874A934210D0874A934221D0864A9342C0
:102E500037D0864A93425CD0854A93426BD07F4AF2
:102E600093427DD010223AE002F55842D2F88820F1
:102E700002F00302032A09D8DFE802F00204870601
:102E800001222CE004222AE0082228E0102226E079
:102E900002F5E632D2F8882002F00C020C2A0ED895
:102EA000DFE802F0070D0D0D090D0D0D750D0D0D6F
:102EB0000B00002213E0042211E008220FE0102290
:102EC0000DE002F5E432D2F8882002F03002202A28
:102ED0005FD01AD8002A5ED0102A5ED104225F4942
:102EE0008B4276D0E069B0F5004F00F0C980082A27
:102EF00000F23481DFE812F0F7001901F500320129
:102F00001C013201320132011F01302A47D108224F
:102F1000E5E702F5E232D2F8882002F0C002802A0A
:102F20003FD004D8FAB3402A3FD10422D7E7C02AC1
:102F30003DD10822D3E702F5E032D2F8882002F42E
:102F40004072B2F5007F34D005D8A2B3B2F5807FCD
:102F500033D10422C3E7B2F5407F30D10822BEE767
:102F600002F5C832D2F8882002F44062B2F5006F50
:102F700027D005D83AB3B2F5806F26D10422AEE748
:102F8000B2F5406F23D10822A9E70222A7E7022267
:102F9000A5E70222A3E70022A1E710229FE7102263
:102FA0009DE702229BE7002299E7102297E7102273
:102FB00095E7022293E7002291E710228FE7102283
:102FC0008DE702228BE7002289E7102287E7102293
:102FD00085E7082A00F2B280DFE802F008B03BB0D3
:102FE00038B0B0B005004FF4004004E0FEF71AFF1F
:102FF000002800F0A580626A1E4B33F81220B0FB57
:10300000F2F3656805EB4501994200F29B80B3EB52
:10301000053F00F29980002633463146FDF758F906
:10302000090241EA106100026B08C0182A463346C3
:1030300041F10001FDF74CF9A0F540720E4B9A42A8
:1030400000F284802368D860304665E0FEF7A4FD76
:10305000CEE70A48CFE700BFF369FFCF008000400A
:10306000003801400044004000480040004C00404F
:10307000005000407C550008FFFC0F000024F400C5
:10308000082A65D8DFE802F0072705642A6464642B
:103090000B00354803E0FEF7C5FE00285AD0626AEF
:1030A000324B33F81230B0FBF3F06268530803EB95
:1030B0004000B0FBF2F0A0F110024FF6EF739A421D
:1030C0004AD883B223F00F03C0F3420018432368A9
:1030D000D860002020E0FEF7B7FEDEE7FEF75CFDDB
:1030E000DBE7214803E0FEF79DFE002838D0626A46
:1030F0001E4B33F81230B0FBF3F0636800EB530063
:10310000B0FBF3F0A0F110024FF6EF739A4229D80A
:10311000236880B2D86000200123A4F86A30A4F8A4
:10312000683000232367636770BDFEF78DFEDCE720
:10313000FEF732FDD9E74FF40040D8E70120EBE776
:103140000020E9E70120E7E70120E5E70120E3E7C8
:103150000120E1E70020DFE70120DDE70120DBE7D8
:103160000020D9E70120D7E70024F4007C550008AF
:10317000836A13F0010F06D00268536823F400330A
:10318000C16A0B435360836A13F0020F06D00268D2
:10319000536823F48033016B0B435360836A13F04D
:1031A000040F06D00268536823F48023416B0B435D
:1031B0005360836A13F0080F06D00268536823F443
:1031C0000043816B0B435360836A13F0100F06D0EA
:1031D0000268936823F48053C16B0B439360836A46
:1031E00013F0200F06D00268936823F40053016C9B
:1031F0000B439360836A13F0400F0AD00268536850
:1032000023F48013416C0B435360436CB3F5801F70
:103210000BD0836A13F0800F06D00268536823F442
:103220000023C16C0B43536070470268536823F45A
:10323000C003816C0B435360EBE72DE9F84305466F
:103240000F4616469946DDF820802C68E46937EA77
:1032500004030CBF4FF0010C4FF0000CB44557D1E4
:10326000B8F1FF3FF1D0FEF7DDF9A0EB09004045D2
:103270002FD8B8F1000F2CD02B681A6812F0040F69
:10328000E3D0DA6912F4006FDFD04FF400621A6203
:103290002A6852E8003F23F4D07342E80031002945
:1032A000F6D12A6802F1080353E8003F23F0010336
:1032B000083242E800310029F3D12023C5F88430D8
:1032C000C5F88830C5F88C30002385F8803003209D
:1032D0001FE02A6852E8003F23F4D07342E800312F
:1032E0000029F6D12A6802F1080353E8003F23F0D1
:1032F0000103083242E800310029F3D12023C5F848
:103300008430C5F88830002385F88030032000E041
:103310000020BDE8F8832DE9F04182B01E46D0F8C8
:103320008430202B58D104460D469046002957D0B2
:10333000002A57D090F88030012B55D0012380F817
:1033400080300023C0F88C302123C0F88430FEF791
:1033500069F90746A4F85480A4F85680A368B3F529
:10336000805F05D04FF00008002384F8803014E01F
:10337000236913B14FF00008F6E7A8460025F3E7EC
:1033800038F8023B2268C3F308039362B4F856206E
:1033900092B2013A92B2A4F85620B4F856309BB2D9
:1033A00073B100963B46002280212046FFF745FF7F
:1033B000E0B9002DE4D015F8012B23689A62E5E707
:1033C00000963B46002240212046FFF736FF78B9A1
:1033D0002023C4F8843000E0022002B0BDE8F08170
:1033E0000120FAE70120F8E70220F6E70320F4E7DE
:1033F0000320F2E730B583B004460023C0F88C30D8
:10340000FEF710F905462268126812F0080F0FD176
:1034100023681B6813F0040F18D12023C4F88430EC
:10342000C4F888300020E06684F8800003B030BD26
:103430006FF07E430093034600224FF400112046B4
:10344000FFF7FBFE0028E3D00320EFE76FF07E4399
:1034500000932B4600224FF480012046FFF7EDFE3B
:103460000028DAD00320E1E778B310B50446D0F89D
:1034700084300BB32423C4F884302268136823F00B
:10348000010313602046FFF7AFFC012813D0A36AA5
:10349000BBB92268536823F4904353602268936851
:1034A00023F02A0393602268136843F0010313603A
:1034B0002046FFF79FFF10BD80F8803000F0DAFD56
:1034C000D8E72046FFF754FEE3E7012070470000ED
:1034D00010B48165A0F85C20A0F85E20002303678B
:1034E0008368B3F5805F06D0A3B9036973B9FF237E
:1034F000A0F8603014E0036923B940F2FF13A0F88C
:1035000060300DE0FF23A0F8603009E07F23A0F8D1
:10351000603005E0B3F1805F31D00023A0F8603067
:103520000023C0F88C302223C0F88830016801F1F4
:10353000080353E8003F43F00103083141E8003439
:10354000002CF3D1436EB3F1005F22D08368B3F552
:10355000805F49D02C4B0367002380F880300369DB
:10356000002B47D0026852E8003F43F4907342E8D2
:1035700000310029F6D100205DF8044B7047036943
:103580001BB97F23A0F86030CAE73F23A0F8603062
:10359000C6E7B0F868309342D8D88368B3F5805F47
:1035A0001CD01A4B0367002380F88030036943B1B5
:1035B000026852E8003F43F4807342E8003100297A
:1035C000F6D1026802F1080353E8003F43F080534C
:1035D000083242E800310029F3D1CCE70369002B1F
:1035E000DFD10B4B0367DEE70369002BB2D1094B38
:1035F0000367B1E7026852E8003F43F0200342E866
:1036000000310029F6D1B6E745290008A92A0008AB
:10361000492C0008F729000838B5D0F88830202B4D
:103620001ED1F9B102B390F88030012B1ED00123D6
:1036300080F880300023C36603680D4CA3420CD091
:103640005B6813F4000F08D0046854E8003F43F0AF
:10365000806344E80035002DF6D1FFF739FF00E024
:10366000022038BD0120FCE70120FAE70220F8E73C
:1036700000800040436E2BB90123A0F86A30A0F807
:103680006830704730B403689A68C2F34262996840
:10369000490F094D6B5CDB00084C615C93FBF1F357
:1036A000A0F86A30AB5CDB00A25C93FBF2F3A0F8FD
:1036B000683030BC704700BF9C5500089455000826
:1036C00000283ED0F8B50F4616461D460446D0F8F1
:1036D00084306BB32423C4F884302268136823F049
:1036E000010313602046FFF77FFB01281FD0A36A68
:1036F0001BBB2268936843F48043936022689368FD
:1037000023F400433B4393602D0445EA4655236868
:103710001A6822F07F7222F440322A431A6022682B
:10372000136843F0010313602046FFF763FEF8BD02
:1037300080F8803000F09EFCCCE72046FFF718FDB3
:10374000D7E70120704770477047704790F8803086
:10375000012B18D0012380F880302423C0F8843056
:1037600003681A68196821F00101196022F00052FB
:103770000023436601680A602022C0F8842080F894
:103780008030184670470220704738B590F8803076
:10379000012B1DD00446012380F880302423C0F87B
:1037A000843003681D681A6822F001021A600268FA
:1037B000936823F0604319439160FFF75BFF236830
:1037C0001D602023C4F88430002084F8800038BDB8
:1037D0000220FCE738B590F88030012B1DD004465C
:1037E000012380F880302423C0F8843003681D68EA
:1037F0001A6822F001021A600268936823F060637D
:1038000019439160FFF736FF23681D602023C4F839
:103810008430002084F8800038BD0220FCE70000DE
:103820002DE9F04389B00024039404940594069490
:103830000794404BDA6C42F00402DA64DA6C02F06E
:1038400004020092009ADA6C42F00102DA64DA6C47
:1038500002F001020192019ADA6C42F00202DA648B
:10386000DB6C03F002030293029B334E224643F2C9
:1038700009113046FEF792FD22464FF488714FF051
:103880009040FEF78BFD2D4D224641F2D101284696
:10389000FEF784FD43F2091303930127049705946F
:1038A000069403A93046FEF78FFC4FF48873039308
:1038B00004970594069403A94FF09040FEF784FC0A
:1038C000302303934FF00209CDF81090059406942D
:1038D0004FF00708CDF81C8003A93046FEF774FCB2
:1038E00041F2D103039304970594069403A9284653
:1038F000FEF76AFC4FF440630393CDF810900594F3
:103900000694CDF81C8003A92846FEF75DFC8023B1
:1039100003930494059403A93046FEF755FC202335
:1039200003930494059403A92846FEF74DFC09B0BF
:10393000BDE8F08300100240000800480004004881
:103940000268094B9A4200D0704782B003F5644385
:103950001A6E42F400621A661B6E03F40063019350
:10396000019B02B0704700BF002C014000B587B03A
:1039700000230193029303930493059302680F4B72
:103980009A4202D007B05DF804FB03F56443DA6C99
:1039900042F00102DA64DB6C03F001030093009B48
:1039A0004FF400730193022302930623059301A9A8
:1039B0004FF09040FEF708FCE4E700BF002C014008
:1039C00010B59CB00024189419941A941B94159463
:1039D000169417940E940F941094119412941394B7
:1039E00014943422214601A801F01EF93248334BC9
:1039F00003604460846041F28833C36004614461C1
:103A000080238361FDF764F9002842D14FF480538D
:103A1000189318A92848FDF7B3FA00283CD1264886
:103A2000FDF786F900283AD10023159316931793D2
:103A300015A92148FDF768FC002833D160230E93B7
:103A400000230F9310931193129313931493042252
:103A50000EA91948FDF7EAF938BB00230193029338
:103A60000393049305934FF400520692079308932F
:103A700009934FF000720A920B930C930D9301A9D6
:103A80000D48FDF793FC98B90B48FFF76FFF1CB08A
:103A900010BDFCF739FEB9E7FCF736FEBFE7FCF7CF
:103AA00033FEC1E7FCF730FEC8E7FCF72DFED4E794
:103AB000FCF72AFEE8E700BF94000020002C01403C
:103AC00070B582B00546244C002210212046FEF736
:103AD00065FC224A28681060AB88938013781B032A
:103AE0009BB2517843EA01231BB2917843EA011358
:103AF000D17843EAC103127943EA820343EA4103DE
:103B0000C3F307228DF804208DF8053000268DF8C8
:103B100003603C238DF80230114D4FF0FF3301223A
:103B20000DF10301284600F0EBFC4FF0FF330222B9
:103B300001A9284600F0E4FC4FF0FF3301220DF10B
:103B40000201284600F0DCFC012210212046FEF78D
:103B500025FC304602B070BD00040048F000002093
:103B60000801002070B582B00646254D00221021C4
:103B70002846FEF713FC0124224B1C70224A3068B1
:103B80001060B388938013789B039BB2517843EA0B
:103B900081231BB2917843EA8113D17843EA011360
:103BA000117943EA81039BB252791A431B0A8DF8BB
:103BB00004308DF805208DF803403C238DF8023049
:103BC000124E4FF0FF3322460DF10301304600F054
:103BD00097FC4FF0FF33022201A9304600F090FC21
:103BE0004FF0FF3322460DF10201304600F088FC11
:103BF000224610212846FEF7D1FB002002B070BDFE
:103C00000004004807010020F800002008010020FF
:103C100070B582B00646284D002210212846FEF7D6
:103C2000BDFB0224254B1C70254A30681060B1880A
:103C3000B3799180937113781B039BB2517843EA57
:103C400041231BB2917843EA8113D17843EA4113AF
:103C5000117943EA8103517943EA41039BB2927996
:103C60001A431B0A8DF804308DF805208DF80340A7
:103C70003C238DF80230134E4FF0FF3301220DF13B
:103C80000301304600F03CFC4FF0FF33224601A90F
:103C9000304600F035FC4FF0FF3301220DEB0401FC
:103CA000304600F02DFC012210212846FEF776FB5D
:103CB000002002B070BD00BF0004004807010020D2
:103CC000000100200801002070B582B006462C4C8F
:103CD000002210212046FEF761FB0322294B1A70B7
:103CE000294D2B463068716803C3317A19702B78DF
:103CF0005B039BB2697843EA01331BB2A97843EABC
:103D0000C1231BB2E97843EA01231BB2297943EAB4
:103D10000113697943EAC103A97943EA8103E97987
:103D200043EA41039BB2297A19431B0A8DF80430F8
:103D30008DF805108DF803203C238DF80230134DCB
:103D40004FF0FF3301220DF10301284600F0D8FBAC
:103D50004FF0FF33022201A9284600F0D1FB4FF0BB
:103D6000FF3301220DF10201284600F0C9FB0122B8
:103D700010212046FEF712FB002002B070BD00BFEC
:103D80000004004807010020E00000200801002096
:103D900030B583B0124C002210212046FEF7FEFA07
:103DA0000F238DF8043000228DF8052004258DF8AE
:103DB000065007238DF8073010212046FEF7EEFA53
:103DC0004FF0FF332A460DEB0501064800F098FB43
:103DD000012210212046FEF7E1FA03B030BD00BFFA
:103DE00000040048080100202DE9F04186B01323AB
:103DF000374A13708DF8133093238DF81330354CF8
:103E0000002210212046FEF7C9FA334D4FF0FF3350
:103E100001220DF11301284600F072FB4FF0FF3331
:103E2000022205A9284600F0DBFD012210212046D0
:103E3000FEF7B4FA9DF814409DF8152042EA0424D8
:103E400002F00F0507EE905AF8EE677AB4EE007AAA
:103E500067EE877A240907EE104AB8EE477A77EEC4
:103E6000877A1E4FC7ED007A1D4E4FF0FF330722B1
:103E70001C493046FFF74FFADFF870802246414672
:103E800002A800F0D9FE02A8FCF7CAF94FF0FF33F0
:103E900082B202A93046FFF73EFA4FF0FF3301220B
:103EA00011493046FFF737FA2A464146684600F086
:103EB000C3FE6846FCF7B4F94FF0FF3382B269469F
:103EC0003046FFF728FA97ED000A06B0BDE8F0810A
:103ED000070100200004004808010020EC00002039
:103EE0006C010020B0550008A8550008A455000832
:103EF00008B51048104B03604FF4827343600023F1
:103F000083604FF4E062C260036143614FF400726A
:103F100082611822C2610362436283620722C26225
:103F20000363436300F078FA00B908BDFCF7ECFBCB
:103F3000FBE700BF080100200030014000B589B058
:103F40000023039304930593069307930268134B8E
:103F50009A4202D009B05DF804FB03F560431A6E83
:103F600042F480521A661A6E02F480520192019A4B
:103F7000DA6C42F00102DA64DB6C03F001030293B5
:103F8000029BE0230393022304930523079303A9D1
:103F90004FF09040FEF718F9DCE700BF0030014019
:103FA00008B51748174B03604FF4E1334360002313
:103FB0008360C36003610C2242618361C361036259
:103FC00043628362FFF750FA70B900210C48FFF793
:103FD000DCFB60B900210A48FFF7FCFB50B9084838
:103FE000FFF7B4FB48B908BDFCF78EFBEDE7FCF723
:103FF0008BFBEFE7FCF788FBF1E7FCF785FBF2E7CB
:10400000FC010020004C004008B51848184B036024
:104010004FF4E133436000218160C16001610C23F2
:1040200043618161C1610162416281620B460A465E
:10403000FFF746FB70B900210C48FFF7A6FB60B9FB
:1040400000210A48FFF7C6FB50B90848FFF77EFB7E
:1040500048B908BDFCF758FBEDE7FCF755FBEFE767
:10406000FCF752FBF1E7FCF74FFBF2E76C01002095
:104070000044004010B59EB00446002119911A91E9
:104080001B911C911D91502205A800F0CDFD2368C5
:10409000324A934204D0324A93422CD01EB010BD13
:1040A0000823059305A8FDF7E1FE08BB2D4B9A6D8B
:1040B00042F400229A659A6D02F400220192019A5C
:1040C000DA6C42F00402DA64DB6C03F0040302935E
:1040D000029B4FF44063199302231A9300231B930E
:1040E0001C9305231D9319A91F48FEF76DF8D5E70A
:1040F000FCF70AFBDAE70223059305A8FDF7B6FEF5
:1041000048BB184B9A6D42F400329A659A6D02F4DE
:1041100000320392039ADA6C42F00102DA64DB6C3B
:1041200003F001030493049B0E23199302231A93B3
:1041300000241B941C9407231D9319A94FF0904051
:10414000FEF742F8224621462620FEF7B3F9262044
:10415000FEF7E8F9A2E7FCF7D7FAD2E7004C0040F7
:104160000044004000100240000800482DE9F047DC
:1041700082B00546884617461E46FDF753FA0A9B4D
:104180001B1A03EB0609FDF74DFA82462B4B1B6801
:10419000C3F3CB3309FB03F301932B689C6838EA24
:1041A00004030CBF4FF0010C4FF0000CBC4540D095
:1041B000B6F1FF3FF1D0FDF735FAA0EB0A00484514
:1041C0000AD2B9F1000F07D0019A02B14A46019B09
:1041D000013B01939146E0E72A68536823F0E0032E
:1041E00053606B68B3F5827F0BD0AB6AB3F5005FA9
:1041F00014D0012385F85D30002385F85C3003205E
:1042000018E0AB68B3F5004F02D0B3F5806FECD186
:104210002A68136823F040031360E6E72A681368EE
:1042200023F4005313602A68136843F400531360A7
:10423000DFE7002002B0BDE8F08700BF08000020E3
:104240002DE9F04782B006460C4615461F4600236E
:104250008DF80330FDF7E6F90A9B1B1A03EB0708FC
:10426000FDF7E0F98146D6F800A0314B1B6803EB5F
:104270008303C3EBC3031B0D08FB03F3019302E0AD
:10428000B7F1FF3F12D133689B6803EA040CAC45D9
:104290004AD0B4F5C06FF3D1002DF1D19AF80C30AB
:1042A000DBB28DF803309DF80330E9E7FDF7BAF98A
:1042B000A0EB090040450AD2B8F1000F07D0019ADF
:1042C00002B14246019B013B01939046DBE7326815
:1042D000536823F0E00353607368B3F5827F0BD01B
:1042E000B36AB3F5005F14D0012386F85D30002374
:1042F00086F85C30032018E0B368B3F5004F02D0B5
:10430000B3F5806FECD13268136823F0400313607B
:10431000E6E73268136823F40053136032681368C9
:1043200043F400531360DFE7002002B0BDE8F087DC
:104330000800002070B582B004460D461646009273
:104340000B4600224FF4C051FFF77AFFB0B9009638
:104350002B46002280212046FFF708FFA8B90096CF
:104360002B4600224FF4C0612046FFF769FF50B191
:10437000236E43F020032366032004E0236E43F002
:1043800020032366032002B070BD236E43F0200398
:1043900023660320F7E770B582B004460D46164643
:1043A0004368B3F5827F0DD000962B460022802112
:1043B0002046FFF7DBFE90B96368B3F5827F14D027
:1043C00002B070BD8368B3F5004F02D0B3F5806FC3
:1043D000EAD12268136823F040031360E4E7236EF8
:1043E00043F0200323660320EAE7A368B3F5004FF8
:1043F00002D0B3F5806FE3D100962B4600224FF434
:10440000C0612046FFF71CFF0028D9D0236E43F07F
:10441000200323660320D3E700286FD010B504469D
:10442000436A33B94368B3F5827F05D00023C36183
:1044300002E00023036143610023A36294F85D302E
:10444000002B52D0022384F85D302268136823F0D9
:1044500040031360E368B3F5E06F4CD90022B3F575
:10446000706F04D0B3F5E06F01D00023A3626368DE
:1044700003F48273A16801F404410B43216901F044
:1044800002010B43616901F001010B43A16901F4D1
:1044900000710B43E16901F038010B43216A01F01F
:1044A00080010B43A16A01F4005120680B430360B3
:1044B000638B03F00403616A01F010010B43616B2D
:1044C00001F008010B43E16801F470610B432168BE
:1044D00013434B602268D36923F40063D361002047
:1044E0002066012384F85D3010BD84F85C302046DE
:1044F000FFF724FDA6E74FF48052B0E70120704794
:104500002DE9F04383B01D4690F85C30012B00F09C
:10451000F680044688469146012380F85C30FDF71A
:1045200081F8074694F85D60F6B2012E40F0D48021
:10453000B8F1000F00F0D180B9F1000F00F0CD808C
:10454000032384F85D3000232366C4F83880A4F880
:104550003C90A4F83E902364A4F84430A4F846307C
:104560002365E364A368B3F5004F1ED023681A687F
:1045700012F0400F03D11A6842F040021A60E3685B
:10458000B3F5E06F42D9636813B1B9F1010F23D1DC
:10459000A26B23681288DA60A36B0233A363E38FF4
:1045A0009BB2013B9BB2E38716E02268136823F0BD
:1045B000400313602268136843F480431360D5E717
:1045C000FDF730F8C01BA84203D3B5F1FF3F40F020
:1045D0008E80002D00F08D80E38F9BB2002B66D083
:1045E00023689A6812F0020FEAD0A26B1288DA6090
:1045F000A36B0233A363B4F83EC01FFA8CFC0CF12A
:10460000FF3C1FFA8CFCA4F83EC0E5E7636813B1D9
:10461000B9F1010F33D1E38F9BB2012B0CD9A26BFF
:1046200023681288DA60A36B0233A363E38F9BB223
:10463000023B9BB2E38722E0A26B236812781A73D5
:10464000A36B0133A363E38F9BB2013B9BB2E38770
:1046500015E0A36B1B781373A36B0133A363E38F84
:104660009BB2013B9BB2E38709E0FCF7DBFFC01B79
:10467000A84202D3B5F1FF3F3DD1002D3DD0E38FDD
:104680009BB2A3B12268936813F0020FEDD0E38FC1
:104690009BB2012BDDD9A36B1B88D360A36B0233C4
:1046A000A363E38F9BB2023B9BB2E387E7E73A4603
:1046B00029462046FFF73EFE08B120232366A36863
:1046C00033B901932368DA6801929B680193019BD7
:1046D000236E13B9002600E00226012384F85D3022
:1046E000002384F85C30304603B0BDE8F083032635
:1046F000F3E70326F1E70326EFE70326EDE70226BB
:10470000F1E72DE9F8431F46089D90F85C30012B36
:1047100000F06481044688469146012380F85C30AD
:10472000FCF780FF064694F85D30DBB26268012B2F
:104730000AD0B2F5827F40F03881A268002A40F0AA
:104740003D81042B40F03C81B8F1000F00F03A812C
:10475000B9F1000F00F03881002F00F0378194F894
:104760005D30DBB2042B02D0052384F85D300023DA
:104770002366C4F84090A4F84670A4F84470C4F8C6
:104780003880E787A787E3642365E368B3F5E06FC4
:1047900001D8012F23D92268536823F48053536032
:1047A00023681A6812F0400F03D11A6842F04002E1
:1047B0001A60E368B3F5E06F58D963680BB1012F55
:1047C0000BD1A26B23681288DA60A36B0233A36358
:1047D000E38F9BB2013B9BB2E387012731E0226864
:1047E000536843F480535360DAE7A26B1288DA60AF
:1047F000A36B0233A363E38F9BB2013B9BB2E387BE
:10480000002723689A6812F0010F11D0B4F84620EF
:1048100092B26AB1DA68236C1A80236C0233236483
:10482000B4F846309BB2013B9BB2A4F84630012756
:10483000FCF7F8FE831BAB4203D3B5F1FF3F40F01A
:10484000C780E38F9BB22BB9B4F846309BB2002BE4
:1048500000F0A18023689A6812F0020FD1D0E28F95
:1048600092B2002ACDD0002FCBD0BEE763680BB147
:10487000012F0FD1E38F9BB2012B0DD9A26B2368BF
:104880001288DA60A36B0233A363E38F9BB2023B0F
:104890009BB2E387012749E0A26B236812781A7361
:1048A000A36B0133A363E38F9BB2013B9BB2E3870E
:1048B000F0E7E28F92B2012A0CD9A26B1288DA607B
:1048C000A36B0233A363E38F9BB2023B9BB2E387EC
:1048D00000273DE0A26B12781A73A36B0133A36328
:1048E000E38F9BB2013B9BB2E387002730E0226855
:1048F000536843F48053536001270DE0226C1B7B07
:104900001370236C01332364B4F846309BB2013B2F
:104910009BB2A4F846300127FCF784FE801BA84216
:1049200002D3B5F1FF3F55D1002D55D0E38F9BB297
:1049300023B9B4F846309BB2002B2CD023689A6878
:1049400012F0020F04D0E28F92B20AB1002FB0D160
:1049500023689A6812F0010FDED0B4F8462092B2B4
:10496000002AD9D0B4F8462092B2012AC6D9DA6812
:10497000236C1A80236C02332364B4F846309BB254
:10498000023B9BB2A4F84630B4F846309BB2012BF0
:10499000ADD90127C0E7324629462046FFF7CAFCB9
:1049A00020B120232366012000E00220012384F8A7
:1049B0005D30002384F85C30BDE8F8830220F5E721
:1049C0000220F3E70120F1E70120EFE70120EDE706
:1049D0000320EBE70320E9E70320E7E70220EBE70A
:1049E0002DE9F04383B00446884691461D46406851
:1049F000B0F5827F43D094F85C30012B00F0C38087
:104A0000012384F85C30FCF70DFE074694F85D60E6
:104A1000F6B2012E40F0A480B8F1000F00F0A180A2
:104A2000B9F1000F00F09D80042384F85D3000236D
:104A30002366C4F84080A4F84490A4F84690A36389
:104A4000A387E387E3642365E368B3F5E06F24D9C4
:104A50002268536823F480535360A368B3F5004F72
:104A600021D023681A6812F0400F03D11A6842F06F
:104A700040021A60E368B3F5E06F29D94AE0A36801
:104A8000002BB8D1042384F85D30009513460A4604
:104A90002046FFF736FE064669E02268536843F475
:104AA00080535360D9E72268136823F040031360F2
:104AB0002268136823F480431360D2E7FCF7B2FD49
:104AC000C01BA84202D3B5F1FF3F54D1002D54D0F2
:104AD000B4F846309BB2002B36D023689A6812F0A7
:104AE000010FEBD0226C1B7B1370236C013323640A
:104AF000B4F846309BB2013B9BB2A4F84630E7E7DE
:104B0000FCF790FDC01BA84202D3B5F1FF3F36D1A0
:104B1000002D36D0B4F846309BB2ABB123689A680A
:104B200012F0010FECD0DA68236C1A80236C023388
:104B30002364B4F846C01FFA8CFC0CF1FF3C1FFA4A
:104B40008CFCA4F846C0E5E73A4629462046FFF724
:104B500022FC08B120232366236E13B9002600E04F
:104B60000226012384F85D30002384F85C3030464F
:104B700003B0BDE8F0830326F3E70326F1E703263D
:104B8000EFE70326EDE70226F1E700000D48854632
:104B90000D480E490E4A002302E0D458C450043395
:104BA000C4188C42F9D30B4A0B4C002301E013606C
:104BB0000432A242FBD3FDF7D7FC00F011F8FBF75B
:104BC000D5FDFEE700C0012000000020700000209D
:104BD000FC55000870000020A0020020FEE7000045
:104BE00070B50D4D0D4C641BA4100026A64209D1D2
:104BF0000B4D0C4C00F09CFC641BA4100026A6423C
:104C000005D170BD55F8043B98470136EEE755F8DD
:104C1000043B98470136F2E7F4550008F4550008C4
:104C2000F4550008F855000802440346934200D1A9
:104C3000704703F8011BF9E70EB400B59CB01DAB3B
:104C4000029006906FF000410948079104910949CC
:104C500053F8042B05910068019302A900F068F84D
:104C6000029B00221A701CB05DF804EB03B0704781
:104C70000C0000200802FFFF2DE9F0478E689E42DD
:104C800082460C4690461F4638D88A8912F4906FA7
:104C900032D025680969A5EB0109656905EB450571
:104CA00005EBD57501334B446D109D4238BF1D4651
:104CB000530531D5294600F063FB064650B90C2355
:104CC000CAF80030A38943F04003A3814FF0FF30BE
:104CD000BDE8F08721694A4600F0BEFAA38923F4B3
:104CE000906343F08003A381266165614E44A5EB88
:104CF00009052660A5603E46BE4200D93E462068B2
:104D00003246414600F0B6FAA3689B1BA3602368B5
:104D1000334423600020DBE72A4600F0A5FB06466B
:104D20000028E1D12169504600F0BEFAC7E7000033
:104D30002DE9F04F98468B891B069DB007460D461E
:104D400014460ED50B6963B9402100F019FB2860A9
:104D5000286120B90C233B604FF0FF30D1E04023A5
:104D60006B610023099320238DF82930CDF80C8046
:104D70003023DFF8A8818DF82A304FF0010923464F
:104D80009A4613F8012B0AB1252AF9D1BAEB040B84
:104D90000BD05B46224629463846FFF76DFF0130AF
:104DA00000F0AA80099A5A4409929AF80030002B20
:104DB00000F0A28000234FF0FF32CDE905230AF175
:104DC000010A049307938DF853301A935446052231
:104DD00014F8011B5148FBF72BFA049AD8B9D006F6
:104DE00044BF20238DF85330110744BF2B238DF887
:104DF00053309AF800302A2B15D0079A54460020D9
:104E00004FF00A0C214611F8013B303B092B4ED9DB
:104E1000B0B1079214E0A0EB080309FA03F31343BF
:104E20000493A246D2E7039B191D1B680391002B34
:104E3000BBBF5B4242F0020207930793B8BF0492E4
:104E400023782E2B0CD163782A2B35D1039B1A1D86
:104E50001B680392002BB8BF4FF0FF330234059359
:104E6000DFF8C8A0217803225046FBF7E1F940B1F2
:104E70004023A0EB0A0003FA00F0049B0343013433
:104E8000049314F8011B26488DF828100622FBF71E
:104E9000CFF9002838D0234B1BBB039B073323F0EB
:104EA000070308330393099B3344099367E70CFB1B
:104EB00002320C460120A5E7002301340593194670
:104EC0004FF00A0C204610F8012B303A092A03D97A
:104ED000002BC5D00591C3E70CFB0121044601233B
:104EE000F0E703AB00932A460F4B04A93846AFF313
:104EF0000080421C0646D6D1AB895B063FF52CAF3D
:104F000009981DB0BDE8F08F03AB00932A46064B0D
:104F100004A9384600F07AF8EBE700BFB85500085E
:104F2000C255000800000000794C0008BE5500087A
:104F30002DE9F047164699468A680B69DDF820800E
:104F40009342B8BF1346336091F8432007460C469E
:104F50000AB1013333602368990642BF33680233D4
:104F60003360256815F0060506D104F1190AE368D7
:104F700032689B1AAB4226DC94F84320131E226849
:104F800018BF012392062BD404F143024946384648
:104F9000C04701301ED02368E568326803F006037D
:104FA000042B08BFAD1AA36822690CBF25EAE5757A
:104FB00000259342C4BF9B1AED1800261A34B5424F
:104FC0001AD1002008E00123524649463846C0471E
:104FD000013003D14FF0FF30BDE8F0870135C6E75F
:104FE000E1185A1C302081F84300224494F84510FF
:104FF00082F843100233C7E7012322464946384668
:10500000C0470130E6D00136D9E700002DE9FF475F
:105010000F7E0C9D782F914680460C469A4601F1F2
:10502000430207D8622F0AD8002F00F0D880582FEB
:1050300000F0A38004F1420584F842703AE0A7F141
:105040006303152BF6D801A151F823F0A5500008F1
:10505000B950000835500008355000083550000898
:1050600035500008B9500008355000083550000888
:105070003550000835500008C5510008E9500008B7
:10508000A75100083550000835500008E7510008C6
:1050900035500008E9500008355000083550000828
:1050A000AF5100082B681A1D1B682A6004F14205E5
:1050B00084F842300123A3E020682968060601F144
:1050C00004030AD50E682B60002E03DA2D237642E6
:1050D00084F843305E480A2319E00E682B6010F014
:1050E000400F18BF36B2EFE72B682068191D296002
:1050F000010601D51E6802E04606FBD51E8854480D
:105100006F2F0CBF08230A23002184F84310656821
:10511000A560002DA2BF216821F0040121600EB915
:10512000002D4DD01546B6FBF3F103FB1167C75DAB
:1051300005F8017D3746BB420E46F4D9082B0BD14A
:105140002368DE0708D5236961689942DEBF3023F2
:1051500005F8013C05F1FF35521B2261CDF800A096
:105160004B4603AA21464046FFF7E2FE01304CD1F0
:105170004FF0FF3004B0BDE8F087354881F8457046
:105180002968236851F8046B29601D0614D5DF07D0
:1051900044BF43F0200323601EB9236823F020039B
:1051A00023601023B0E7236843F0200323607823B3
:1051B000284884F84530E3E7590648BFB6B2E6E729
:1051C0001546BBE72B6826686169181D28603506FF
:1051D0001B6801D5196002E07006FBD51980002319
:1051E00023611546BAE72B681A1D2A601D6862689C
:1051F00000212846FBF71CF808B1401B606063687B
:105200002361002384F84330A8E723692A464946EE
:105210004046D0470130ABD023689B0713D4E068E9
:10522000039B9842B8BF1846A4E70123324649467B
:105230004046D04701309BD00135E36803995B1AA3
:10524000AB42F2DCEBE7002504F11906F5E700BFFD
:10525000C9550008DA5500080A44914200F1FF33AD
:1052600000D1704710B511F8014B03F8014F91427E
:10527000F9D110BD884210B501EB020402D9844275
:10528000234607D8431EA14208D011F8012B03F88A
:10529000012FF8E7024401468A4200D110BD13F8FD
:1052A000014D02F8014DF7E737B5002944D051F818
:1052B000043C0190002BA1F10404B8BFE41800F0F5
:1052C00013F91E4A0198136833B96360146003B080
:1052D000BDE8304000F00EB9A34208D92568611935
:1052E0008B4201BF19685B6849192160EDE71A46D6
:1052F0005B680BB1A342FAD911685518A5420BD1CE
:10530000246821445418A3421160E0D11C685B68F2
:10531000536021441160DAE702D90C230360D6E719
:10532000256861198B4204BF19685B68636004BF1C
:10533000491921605460CAE703B030BD8C020020D7
:1053400070B50E4E0C463168054611B900F0BCF838
:1053500030602146284600F0B7F8431C0AD0C41C30
:1053600024F00304A04207D0211A284600F0ACF82C
:10537000013001D14FF0FF34204670BD9002002073
:105380002DE9F041CD1C25F0030508350C2D38BF63
:105390000C25002D074601DBA94205D90C233B60F3
:1053A00000263046BDE8F0812E4E00F09DF83368AF
:1053B0001C4634BB29463846FFF7C2FF431C04464F
:1053C0004DD134682646002E40D1236831463846F8
:1053D00004EB030800F078F880453AD121680335E2
:1053E0006D1A25F0030508350C2D38BF0C2529460C
:1053F0003846FFF7A5FF01302BD023682B442360EC
:105400000EE02268521B1ED40B2A16D96119A34242
:10541000256018BF5960636808BF316062514B60F6
:10542000384604F10B0600F065F826F00706231D48
:10543000F21AB6D09B1BA350B3E76268A3420CBF1D
:1054400032605A60ECE723466468B2E73446766817
:10545000B9E70C233B60384600F04CF8A1E7256023
:10546000DEE700BF8C0200202DE9F04180461446A3
:105470000E4621B9BDE8F0411146FFF781BF2AB9B8
:10548000FFF712FF25462846BDE8F08100F038F806
:105490008442074602D8B4EB500F12D8214640464A
:1054A000FFF76EFF05460028EDD0BC42224631468C
:1054B00028BF3A46FFF7D0FE31464046FFF7F4FEDC
:1054C000E1E73546DFE7000038B5064D0023044626
:1054D00008462B6000F01EF8431C02D12B6803B174
:1054E000236038BD94020020014800F011B800BFCD
:1054F00098020020014800F00CB800BF980200207C
:1055000051F8043C181F002BBCBF0B58C018704743
:1055100070477047044A05491368002B08BF0B46C3
:1055200018441060184670479C020020A00200201A
:10553000F8B500BFF8BC08BC9E467047F8B500BF80
:08554000F8BC08BC9E46704750
:10554800737465726F776E696B2073696C6E696BC3
:10555800616D690D0A000000200D0A0000000000BE
:10556800000000000102030406070809000000000B
:1055780001020304010002000400060008000A00FA
:105588000C00100020004000800000010804020404
:105598000801010101010103070100002564000061
:1055A8002E000000206D5400416E676C653A2000A3
:1055B800232D302B2000686C4C00656667454647F4
:1055C8000030313233343536373839414243444577
:1055D80046003031323334353637383961626364E6
:0455E80065660000F4
:0855EC0014ADFF7F0100000077
:0455F40005020008A4
:0455F800E1010008C5
:1055FC0001000000100000000024F4001000002046
:10560C00000000000000000000000000000000008E
:10561C00000000000000000000000000000000007E
:10562C00000000000000000000000000000000006E
:10563C00000000000000000000000000000000005E
:10564C00000000000000000000000000000000004E
:10565C00000000000000000000000000000000003E
:0400000508004B8D17
:00000001FF
